:1000000009C016C015C014C013C012C011C010C062
:100010000FC00EC011241FBECFE9CDBF20E0A0E667
:10002000B0E001C01D92A236B207E1F766D0A0C0D1
:10003000E7CF48B321E030E0B90102C0660F771F77
:100040008A95E2F7CB01842B88BB089598B321E011
:1000500030E002C0220F331F8A95E2F720959223E9
:1000600098BB0895B0990AC087E592E00197F1F72F
:1000700000C0000086B380958170089580E00895E7
:10008000CF93C82F81110DC082E090E0D2DF8BE2C8
:1000900091E00197F1F700C0000082E090E0D6DF28
:1000A0000CC081E090E0C5DF8BE291E00197F1F7B1
:1000B00000C0000081E090E0C9DFC0936100CF91F3
:1000C000089583E090E0B5DF81E0DADF84E090E03E
:1000D000BDDF81E080936000089583E090E0B6DFAB
:1000E00080E0CEDF84E090E0A4DF1092600008950D
:1000F000C09A8EE187BBF1DF0895FADFC0E0D0E05F
:1001000000E010E0AFDF8823E9F380916000811107
:100110001BC0D7DF8FE59AEE0197F1F700C0000012
:10012000A1DF882309F1C630D105B0F006C087EB06
:100130009BE00197F1F700C0000094DF8111F7CF39
:10014000CCDFC02FD12FDECFC8DF8FE59AEE01972D
:10015000F1F700C00000D6CF21968FE295E7019716
:10016000F1F700C00000DCCFC630D10558F2E5CF72
:04017000F894FFCF31
:00000001FF
