:1000000009C016C015C014C013C012C011C010C062
:100010000FC00EC011241FBECFE9CDBF20E0A0E667
:10002000B0E001C01D92A336B207E1F7C8D0E7C027
:10003000E7CF48B321E030E0B90102C0660F771F77
:100040008A95E2F7CB01842B88BB089598B321E011
:1000500030E002C0220F331F8A95E2F720959223E9
:1000600098BB0895B0990AC087E592E00197F1F72F
:1000700000C0000086B380958170089580E00895E7
:1000800081110DC081E090E0D4DF8FEA94E0019708
:10009000F1F700C0000081E090E0D8DF089582E031
:1000A00090E0C7DF8FEA94E00197F1F700C000000D
:1000B00082E090E0CBDF089583E090E0BADF81E05A
:1000C000DFDF84E090E0C2DF81E08093620008958A
:1000D00083E090E0BBDF80E0D3DF84E090E0A9DF45
:1000E00010926200089598B388E0892788BB08952C
:1000F000C09A8EE187BBECDF0895109261001092E8
:100100006000B0DF882339F0809160009091610039
:100110008730910550F081E02091600030916100BE
:100120002730310570F480E00895019690936100C6
:10013000809360008FE295E70197F1F700C000001F
:10014000E0CF089510926100109260008BDF882349
:1001500039F080916000909161008530910550F0F8
:1001600081E020916000309161002530310570F40C
:1001700080E00895019690936100809360008FE283
:1001800095E70197F1F700C00000E0CF089507C0A0
:10019000AADF8BE699E30197F1F700C0000062DF68
:1001A0008111F6CF95DF089506C087EB9BE001979C
:1001B000F1F700C0000056DF8111F7CF089598DFF6
:1001C00051DF8823E9F38091620081110CC074DF54
:1001D0008FE59AEE0197F1F700C000008EDF8823CB
:1001E00079F3D5DFEDCF74DF8FE59AEE0197F1F764
:1001F00000C00000A7DF882319F3D6DFE1CFF89411
:02020000FFCF2E
:00000001FF
