S0120000506564616C315F6170702E737265635B
S113000009C016C015C014C013C012C011C010C05E
S11300100FC00EC011241FBECFE9CDBF20E0A0E663
S1130020B0E001C01D92A336B207E1F7E0D005C1EC
S1130030E7CF48B321E030E0B90102C0660F771F73
S11300408A95E2F7CB01842B88BB089598B321E00D
S113005030E002C0220F331F8A95E2F720959223E5
S113006098BB0895B0990AC087E592E00197F1F72B
S113007000C0000086B380958170089580E00895E3
S1130080811107C081E090E0D4DF82E090E0DEDF00
S1130090089582E090E0CDDF81E090E0D7DF08951D
S11300A083E090E0C6DF84E090E0C3DF81E0E8DF36
S11300B084E090E0CBDF81E080936200089583E0E8
S11300C090E0C4DF84E090E0B4DF80E0D9DF84E036
S11300D090E0BCDF10926200089598B388E089270D
S11300E088BB0895C09A8EE187BB8FE295E701979C
S11300F0F1F700C000008FE295E70197F1F700C027
S113010000008FE295E70197F1F700C000008FE24D
S113011095E70197F1F700C000008FE295E701979A
S1130120F1F700C00000CBDF089510926100109237
S1130130600098DF882339F080916000909161001D
S11301408730910550F081E020916000309161008A
S11301502730310570F480E0089501969093610092
S1130160809360008FE295E70197F1F700C00000EB
S1130170E0CF0895109261001092600073DF88232D
S113018039F080916000909161008530910550F0C4
S113019081E020916000309161002530310570F4D8
S11301A080E00895019690936100809360008FE24F
S11301B095E70197F1F700C00000E0CF089507C06C
S11301C08CDF8BE699E30197F1F700C000004ADF6A
S11301D08111F6CF74DF089506C087EB9BE0019789
S11301E0F1F700C000003EDF8111F7CF08957ADFF8
S11301F039DF8823E9F38091620081110FC050DF59
S11302002FE58AEE90E0215080409040E1F700C055
S113021000008BDF882361F3D2DFEACF50DF2FE5C4
S11302208AEE90E0215080409040E1F700C0000049
S1110230A1DF8823E9F2D0DFDBCFF894FFCF03
S9030000FC
